:100000000C9434000C9451000C9451000C94510049
:100010000C9488000C9451000C9451000C945100E5
:100020000C9451000C9451000C9451000C9451000C
:100030000C9451000C9451000C9451000C945100FC
:100040000C9451000C9451000C9451000C945100EC
:100050000C9451000C9451000C9451000C945100DC
:100060000C9451000C94510011241FBECFEFD8E026
:10007000DEBFCDBF11E0A0E0B1E0E4E4F2E002C0F9
:1000800005900D92A230B107D9F721E0A2E0B1E0CE
:1000900001C01D92A430B207E1F70E949C000C94AD
:1000A00020010C94000084E190E0E4E1F0E0BF0165
:1000B000681B790B30E020E00EC0289A50E040E049
:1000C0004617570799F4289850E040E084179507A1
:1000D000B0F42F5F3F4F4091000150910101241770
:1000E000350758F3019719F7289A0895AFE9BFE04B
:1000F0001197F1F700C000004F5F5F4FE1CFAFE90C
:10010000BFE01197F1F700C000004F5F5F4FDECFF7
:100110001F920F920FB60F9211248F939F9381E03D
:1001200090E090930301809302019F918F910F9033
:100130000FBE0F901F901895EF92FF920F931F9391
:10014000CF93DF9388E387B988B1886388B98FEF4D
:1001500084B985B185B98091690081608093690017
:10016000E89A7894CBE1D0E003E210E084E1E82E55
:10017000F12C8091020190910301019731F40E94CA
:1001800053001092030110920201349923C08FEBA7
:100190009DE50197F1F700C00000349948C08091B7
:1001A0000001909101018431910509F18B31910594
:1001B00071F10C9779F42B9A9FEF23ED80E3915026
:1001C00020408040E1F700C000002B98F092010130
:1001D000E09200013399CDCF8FEB9DE50197F1F7C8
:1001E00000C00000339923C00E945300C2CF2C9A54
:1001F0009FEF23ED80E3915020408040E1F700C065
:1002000000002C98D0930101C0930001E3CF2D9AF8
:100210009FEF23ED80E3915020408040E1F700C044
:1002200000002D981093010100930001D3CF90E0BE
:1002300080E0DF91CF911F910F91FF90EF90089593
:04024000F894FFCF60
:020244000C00AC
:00000001FF
